{
  "contractName": "ProductRegistry",
  "abi": [
    {
      "inputs": [
        {
          "internalType": "string",
          "name": "serialNumber",
          "type": "string"
        }
      ],
      "name": "ProductNotFound",
      "type": "error"
    },
    {
      "inputs": [
        {
          "internalType": "string",
          "name": "serialNumber",
          "type": "string"
        }
      ],
      "name": "SerialNumberAlreadyRegistered",
      "type": "error"
    },
    {
      "anonymous": false,
      "inputs": [
        {
          "indexed": true,
          "internalType": "uint256",
          "name": "productId",
          "type": "uint256"
        },
        {
          "indexed": false,
          "internalType": "string",
          "name": "fromEmail",
          "type": "string"
        },
        {
          "indexed": false,
          "internalType": "string",
          "name": "toEmail",
          "type": "string"
        }
      ],
      "name": "OwnershipTransferred",
      "type": "event"
    },
    {
      "anonymous": false,
      "inputs": [
        {
          "indexed": true,
          "internalType": "uint256",
          "name": "productId",
          "type": "uint256"
        },
        {
          "indexed": false,
          "internalType": "string",
          "name": "serialNumber",
          "type": "string"
        }
      ],
      "name": "ProductRegistered",
      "type": "event"
    },
    {
      "anonymous": false,
      "inputs": [
        {
          "indexed": true,
          "internalType": "uint256",
          "name": "productId",
          "type": "uint256"
        },
        {
          "indexed": false,
          "internalType": "enum ProductRegistry.ProductStatus",
          "name": "newStatus",
          "type": "uint8"
        }
      ],
      "name": "StatusUpdated",
      "type": "event"
    },
    {
      "inputs": [
        {
          "internalType": "uint256",
          "name": "",
          "type": "uint256"
        }
      ],
      "name": "products",
      "outputs": [
        {
          "internalType": "uint256",
          "name": "id",
          "type": "uint256"
        },
        {
          "internalType": "string",
          "name": "name",
          "type": "string"
        },
        {
          "internalType": "string",
          "name": "description",
          "type": "string"
        },
        {
          "internalType": "string",
          "name": "serialNumber",
          "type": "string"
        },
        {
          "internalType": "string",
          "name": "creatorEmail",
          "type": "string"
        },
        {
          "internalType": "string",
          "name": "currentOwnerEmail",
          "type": "string"
        },
        {
          "internalType": "enum ProductRegistry.ProductStatus",
          "name": "status",
          "type": "uint8"
        },
        {
          "internalType": "uint256",
          "name": "manufactureDate",
          "type": "uint256"
        },
        {
          "internalType": "uint256",
          "name": "createdAt",
          "type": "uint256"
        },
        {
          "internalType": "uint256",
          "name": "companyId",
          "type": "uint256"
        },
        {
          "internalType": "string",
          "name": "companyName",
          "type": "string"
        },
        {
          "internalType": "uint256",
          "name": "onChainTimestamp",
          "type": "uint256"
        }
      ],
      "stateMutability": "view",
      "type": "function",
      "constant": true
    },
    {
      "inputs": [
        {
          "internalType": "string",
          "name": "",
          "type": "string"
        }
      ],
      "name": "serialNumberToProductId",
      "outputs": [
        {
          "internalType": "uint256",
          "name": "",
          "type": "uint256"
        }
      ],
      "stateMutability": "view",
      "type": "function",
      "constant": true
    },
    {
      "inputs": [
        {
          "internalType": "string",
          "name": "name",
          "type": "string"
        },
        {
          "internalType": "string",
          "name": "description",
          "type": "string"
        },
        {
          "internalType": "string",
          "name": "serialNumber",
          "type": "string"
        },
        {
          "internalType": "string",
          "name": "creatorEmail",
          "type": "string"
        },
        {
          "internalType": "uint256",
          "name": "manufactureDate",
          "type": "uint256"
        },
        {
          "internalType": "uint256",
          "name": "createdAt",
          "type": "uint256"
        },
        {
          "internalType": "uint256",
          "name": "companyId",
          "type": "uint256"
        },
        {
          "internalType": "string",
          "name": "companyName",
          "type": "string"
        }
      ],
      "name": "registerProduct",
      "outputs": [],
      "stateMutability": "nonpayable",
      "type": "function"
    },
    {
      "inputs": [
        {
          "internalType": "uint256",
          "name": "productId",
          "type": "uint256"
        },
        {
          "internalType": "string",
          "name": "newOwnerEmail",
          "type": "string"
        }
      ],
      "name": "transferOwnership",
      "outputs": [],
      "stateMutability": "nonpayable",
      "type": "function"
    },
    {
      "inputs": [
        {
          "internalType": "uint256",
          "name": "productId",
          "type": "uint256"
        },
        {
          "internalType": "enum ProductRegistry.ProductStatus",
          "name": "newStatus",
          "type": "uint8"
        }
      ],
      "name": "updateProductStatus",
      "outputs": [],
      "stateMutability": "nonpayable",
      "type": "function"
    },
    {
      "inputs": [
        {
          "internalType": "uint256",
          "name": "productId",
          "type": "uint256"
        }
      ],
      "name": "getProductById",
      "outputs": [
        {
          "components": [
            {
              "internalType": "uint256",
              "name": "id",
              "type": "uint256"
            },
            {
              "internalType": "string",
              "name": "name",
              "type": "string"
            },
            {
              "internalType": "string",
              "name": "description",
              "type": "string"
            },
            {
              "internalType": "string",
              "name": "serialNumber",
              "type": "string"
            },
            {
              "internalType": "string",
              "name": "creatorEmail",
              "type": "string"
            },
            {
              "internalType": "string",
              "name": "currentOwnerEmail",
              "type": "string"
            },
            {
              "internalType": "enum ProductRegistry.ProductStatus",
              "name": "status",
              "type": "uint8"
            },
            {
              "internalType": "uint256",
              "name": "manufactureDate",
              "type": "uint256"
            },
            {
              "internalType": "uint256",
              "name": "createdAt",
              "type": "uint256"
            },
            {
              "internalType": "uint256",
              "name": "companyId",
              "type": "uint256"
            },
            {
              "internalType": "string",
              "name": "companyName",
              "type": "string"
            },
            {
              "internalType": "uint256",
              "name": "onChainTimestamp",
              "type": "uint256"
            }
          ],
          "internalType": "struct ProductRegistry.Product",
          "name": "",
          "type": "tuple"
        }
      ],
      "stateMutability": "view",
      "type": "function",
      "constant": true
    },
    {
      "inputs": [
        {
          "internalType": "string",
          "name": "serialNumber",
          "type": "string"
        }
      ],
      "name": "getProductBySerialNumber",
      "outputs": [
        {
          "components": [
            {
              "internalType": "uint256",
              "name": "id",
              "type": "uint256"
            },
            {
              "internalType": "string",
              "name": "name",
              "type": "string"
            },
            {
              "internalType": "string",
              "name": "description",
              "type": "string"
            },
            {
              "internalType": "string",
              "name": "serialNumber",
              "type": "string"
            },
            {
              "internalType": "string",
              "name": "creatorEmail",
              "type": "string"
            },
            {
              "internalType": "string",
              "name": "currentOwnerEmail",
              "type": "string"
            },
            {
              "internalType": "enum ProductRegistry.ProductStatus",
              "name": "status",
              "type": "uint8"
            },
            {
              "internalType": "uint256",
              "name": "manufactureDate",
              "type": "uint256"
            },
            {
              "internalType": "uint256",
              "name": "createdAt",
              "type": "uint256"
            },
            {
              "internalType": "uint256",
              "name": "companyId",
              "type": "uint256"
            },
            {
              "internalType": "string",
              "name": "companyName",
              "type": "string"
            },
            {
              "internalType": "uint256",
              "name": "onChainTimestamp",
              "type": "uint256"
            }
          ],
          "internalType": "struct ProductRegistry.Product",
          "name": "",
          "type": "tuple"
        }
      ],
      "stateMutability": "view",
      "type": "function",
      "constant": true
    }
  ],
  "bytecode": "0x6080806040523461001b5760016000556111cd90816100218239f35b600080fdfe6080604052600436101561001257600080fd5b60003560e01c8063151a46c514610d845780633f70c2b414610d485780635850688314610bbf5780637acc0b2014610a2e5780637cb484a214610271578063920e2621146102045763fa0245491461006957600080fd5b346101ff5760403660031901126101ff576004356001600160401b036024358181116101ff5761009d903690600401610fa7565b83600093929352600192602092848452604060002094600586019184116101e9576100d2846100cc8454610fd4565b846110d1565b6000601f851160011461015c579261013f959285807fd5643b12fa251d97bedb00f0982a1ba1909b7b3786f872452317daa1c302dfcc99979461014c97600093610151575b501b906000198560031b1c19161790555b60405195869560408752600460408801910161100e565b92858403908601526110a4565b0390a2005b850135925038610117565b601f1985169083600052866000209160005b8181106101d457509261014c959261013f989592887fd5643b12fa251d97bedb00f0982a1ba1909b7b3786f872452317daa1c302dfcc9b9996106101ba575b505083811b019055610128565b840135600019600387901b60f8161c1916905538806101ad565b8683013584559284019291880191880161016e565b634e487b7160e01b600052604160045260246000fd5b600080fd5b346101ff5760403660031901126101ff5760043560243560048110156101ff5760207f2da7b23ca63c1eb969eee5fae4acb98186abecf5358b0354a82a5183ebca6b2a918360005260018252610261816006604060002001611125565b61026e6040518092610ebc565ba2005b346101ff576101003660031901126101ff576004356001600160401b0381116101ff576102a2903690600401610fa7565b906024356001600160401b0381116101ff576102c2903690600401610fa7565b6044356001600160401b0381116101ff576102e1903690600401610fa7565b9190926064356001600160401b0381116101ff57610303903690600401610fa7565b60e4356001600160401b0381116101ff57610322903690600401610fa7565b939094604051878982376002888201526020818981010301902054610a0857600054986000198a146109f25760018a016000556040519a6103628c610df1565b8a8c52369061037092610e2e565b60208b0152369061038092610e2e565b6040890152610390368688610e2e565b60608901526103a0368284610e2e565b608089015236906103b092610e2e565b60a087015260c086016000905260843560e087015260a43561010087015260c43561012087015236906103e292610e2e565b6101408501524261016085015282600052600160205260406000208451815560208501518051906001600160401b0382116101e95781906104338261042a6001870154610fd4565b600187016110d1565b602090601f831160011461098057600092610975575b50508160011b916000199060031b1c19161760018201555b60408501518051906001600160401b0382116101e95781906104938261048a6002870154610fd4565b600287016110d1565b602090601f8311600114610903576000926108f8575b50508160011b916000199060031b1c19161760028201555b60608501518051906001600160401b0382116101e95781906104f3826104ea6003870154610fd4565b600387016110d1565b602090601f83116001146108865760009261087b575b50508160011b916000199060031b1c19161760038201555b60808501518051906001600160401b0382116101e95781906105538261054a6004870154610fd4565b600487016110d1565b602090601f8311600114610809576000926107fe575b50508160011b916000199060031b1c19161760048201555b60a08501518051906001600160401b0382116101e95781906105b3826105aa6005870154610fd4565b600587016110d1565b602090601f831160011461078c57600092610781575b50508160011b916000199060031b1c19161760058201555b60c0850151600481101561076b576105fc9060068301611125565b60e0850151600782015561010085015160088201556101208501516009820155600a8101946101408101519586516001600160401b0381116101e957610646816100cc8454610fd4565b6020601f82116001146106db579181600b9492610160947ffe5345b00afbb8e30dd35f9905f6d7917ea45ca811cbcdb0de19673accc660fb9a9b6000926106d0575b50508160011b916000199060031b1c19161790555b0151910155836040518284823760208184810160028152030190205561014c6040519283926020845260208401916110a4565b015190508b80610688565b601f198216988360005260206000209960005b8181106107535750927ffe5345b00afbb8e30dd35f9905f6d7917ea45ca811cbcdb0de19673accc660fb999a610160959360019383600b99971061073a575b505050811b01905561069d565b015160001960f88460031b161c191690558b808061072d565b838301518c556001909b019a602093840193016106ee565b634e487b7160e01b600052602160045260246000fd5b0151905087806105c9565b9250600584016000526020600020906000935b601f19841685106107e3576001945083601f198116106107ca575b505050811b0160058201556105e1565b015160001960f88460031b161c191690558780806107ba565b8181015183556020948501946001909301929091019061079f565b015190508780610569565b9250600484016000526020600020906000935b601f1984168510610860576001945083601f19811610610847575b505050811b016004820155610581565b015160001960f88460031b161c19169055878080610837565b8181015183556020948501946001909301929091019061081c565b015190508780610509565b9250600384016000526020600020906000935b601f19841685106108dd576001945083601f198116106108c4575b505050811b016003820155610521565b015160001960f88460031b161c191690558780806108b4565b81810151835560209485019460019093019290910190610899565b0151905087806104a9565b9250600284016000526020600020906000935b601f198416851061095a576001945083601f19811610610941575b505050811b0160028201556104c1565b015160001960f88460031b161c19169055878080610931565b81810151835560209485019460019093019290910190610916565b015190508780610449565b9250600184016000526020600020906000935b601f19841685106109d7576001945083601f198116106109be575b505050811b016001820155610461565b015160001960f88460031b161c191690558780806109ae565b81810151835560209485019460019093019290910190610993565b634e487b7160e01b600052601160045260246000fd5b604051628a8a9d60e71b81526020600482015280610a2a602482018a8c6110a4565b0390fd5b346101ff5760203660031901126101ff576004356000526001602052604060002080546040519182806001830190610a659161100e565b03610a709084610e0d565b6040519081610a82816002840161100e565b03610a8d9083610e0d565b60405180610a9e816003850161100e565b03610aa99082610e0d565b6040519081610abb816004860161100e565b03610ac69083610e0d565b6040519182610ad8816005870161100e565b03610ae39084610e0d565b600684015460ff1692600785015490600886015492600987015494604051978880600a830190610b129161100e565b03610b1d908a610e0d565b600b0154986040519b8c9b8c528b6101806020819201528c01610b3f91610e97565b8b810360408d0152610b5091610e97565b8a810360608c0152610b6191610e97565b89810360808b0152610b7291610e97565b88810360a08a0152610b8391610e97565b9360c08801610b9191610ebc565b60e0870152610100860152610120850152838103610140850152610bb491610e97565b906101608301520390f35b346101ff5760203660031901126101ff576004356001600160401b0381116101ff57610bef903690600401610fa7565b90610bf861113d565b5060405182828237602081848101600281520301902054918215610d2457826000526001602052610d206040600020600b60405191610c3683610df1565b80548352604051610c5581610c4e816001860161100e565b0382610e0d565b6020840152604051610c6e81610c4e816002860161100e565b6040840152604051610c8781610c4e816003860161100e565b6060840152604051610ca081610c4e816004860161100e565b6080840152604051610cb981610c4e816005860161100e565b60a0840152610cd260ff60068301541660c085016110c5565b600781015460e084015260088101546101008401526009810154610120840152604051610d0681610c4e81600a860161100e565b610140840152015461016082015260405191829182610ec9565b0390f35b610a2a604051928392630259e0d160e01b84526020600485015260248401916110a4565b346101ff5760203660031901126101ff57610d6161113d565b506004356000526001602052610d206040600020600b60405191610c3683610df1565b346101ff5760203660031901126101ff576004356001600160401b0381116101ff57366023820112156101ff57610dde6020610dcb81933690602481600401359101610e2e565b8160405193828580945193849201610e74565b8101600281520301902054604051908152f35b61018081019081106001600160401b038211176101e957604052565b90601f801991011681019081106001600160401b038211176101e957604052565b9291926001600160401b0382116101e95760405191610e57601f8201601f191660200184610e0d565b8294818452818301116101ff578281602093846000960137010152565b60005b838110610e875750506000910152565b8181015183820152602001610e77565b90602091610eb081518092818552858086019101610e74565b601f01601f1916010190565b90600482101561076b5752565b60208152815160208201526020820151610ef1610180918260408501526101a0840190610e97565b610f9e610f55610f41610f2d610f19604089015195601f1996878a83030160608b0152610e97565b6060890151868983030160808a0152610e97565b6080880151858883030160a0890152610e97565b60a0870151848783030160c0880152610e97565b610f6760c087015160e0870190610ebc565b60e0860151610100908187015286015161012090818701528601516101409081870152860151610160938683030184870152610e97565b93015191015290565b9181601f840112156101ff578235916001600160401b0383116101ff57602083818601950101116101ff57565b90600182811c92168015611004575b6020831014610fee57565b634e487b7160e01b600052602260045260246000fd5b91607f1691610fe3565b906000929180549161101f83610fd4565b9182825260019384811690816000146110815750600114611041575b50505050565b90919394506000526020928360002092846000945b83861061106d57505050500101903880808061103b565b805485870183015294019385908201611056565b9294505050602093945060ff191683830152151560051b0101903880808061103b565b908060209392818452848401376000828201840152601f01601f1916010190565b600482101561076b5752565b90601f81116110df57505050565b600091825260208220906020601f850160051c8301941061111b575b601f0160051c01915b82811061111057505050565b818155600101611104565b90925082906110fb565b90600481101561076b5760ff80198354169116179055565b6040519061114a82610df1565b81610160600091828152606080602083015280604083015280808301528060808301528060a08301528360c08301528360e08301528361010083015283610120830152610140820152015256fea264697066735822122032f5bc7a0031b5e5adc6f8d30ae23cb1f81cfedbc7fa09a25ce6c1d4c0646d6564736f6c63430008130033",
  "immutableReferences": {},
  "source": "// SPDX-License-Identifier: MIT\npragma solidity ^0.8.18;\n// --- Custom Errors ---\nerror SerialNumberAlreadyRegistered(string serialNumber);\nerror ProductNotFound(string serialNumber);\ncontract ProductRegistry {\n    enum ProductStatus { MANUFACTURING, DISTRIBUTING, FOR_SALE, SOLD }\n\n    struct Product {\n        uint256 id;\n        string name;\n        string description;\n        string serialNumber;\n        string creatorEmail;\n        string currentOwnerEmail;\n        ProductStatus status;\n        uint256 manufactureDate;\n        uint256 createdAt;\n        uint256 companyId;\n        string companyName;\n        uint256 onChainTimestamp; // ✅ 新增：数据上链时间\n    }\n\n    uint256 private productCounter = 1;\n\n    mapping(uint256 => Product) public products;\n    mapping(string => uint256) public serialNumberToProductId; // serialNumber -> productId\n\n    event ProductRegistered(uint256 indexed productId, string serialNumber);\n    event OwnershipTransferred(uint256 indexed productId, string fromEmail, string toEmail);\n    event StatusUpdated(uint256 indexed productId, ProductStatus newStatus);\n\n    // --- 商品登记 ---\n    function registerProduct(\n        string calldata name,\n        string calldata description,\n        string calldata serialNumber,\n        string calldata creatorEmail,\n        uint256 manufactureDate,\n        uint256 createdAt,\n        uint256 companyId,\n        string calldata companyName\n    ) external {\n        if (serialNumberToProductId[serialNumber] != 0) {\n            revert SerialNumberAlreadyRegistered(serialNumber);\n        }\n\n        uint256 newProductId = productCounter++;\n        products[newProductId] = Product({\n            id: newProductId,\n            name: name,\n            description: description,\n            serialNumber: serialNumber,\n            creatorEmail: creatorEmail,\n            currentOwnerEmail: creatorEmail, // 初始持有人就是录入者\n            status: ProductStatus.MANUFACTURING,\n            manufactureDate: manufactureDate,\n            createdAt: createdAt,\n            companyId: companyId,\n            companyName: companyName,\n            onChainTimestamp: block.timestamp // ✅ 上链时间就是注册时的链上时间\n        });\n\n        serialNumberToProductId[serialNumber] = newProductId;\n\n        emit ProductRegistered(newProductId, serialNumber);\n    }\n\n    // --- 商品转移 ---\n    function transferOwnership(uint256 productId, string calldata newOwnerEmail) external {\n        Product storage product = products[productId];\n        product.currentOwnerEmail = newOwnerEmail;\n\n        emit OwnershipTransferred(productId, product.creatorEmail, newOwnerEmail);\n    }\n\n    // --- 修改商品状态 ---\n    function updateProductStatus(uint256 productId, ProductStatus newStatus) external {\n        Product storage product = products[productId];\n        product.status = newStatus;\n\n        emit StatusUpdated(productId, newStatus);\n    }\n\n    // --- 查询 ---\n    function getProductById(uint256 productId) external view returns (Product memory) {\n        return products[productId];\n    }\n\n    function getProductBySerialNumber(string calldata serialNumber) external view returns (Product memory) {\n        uint256 productId = serialNumberToProductId[serialNumber];\n         if (productId == 0) {\n            revert ProductNotFound(serialNumber);\n        }\n\n        return products[productId];\n    }\n}\n",
  "sourcePath": "G:\\coding\\blockchain\\truffle-demo\\contracts\\ProductRegistry.sol",
  "compiler": {
    "name": "solc",
    "version": "0.8.19+commit.7dd6d404.Emscripten.clang"
  },
  "schemaVersion": "3.4.16",
  "updatedAt": "2025-05-04T15:45:37.177Z",
  "networkType": "ethereum",
  "devdoc": {
    "kind": "dev",
    "methods": {},
    "version": 1
  },
  "userdoc": {
    "kind": "user",
    "methods": {},
    "version": 1
  }
}