{
  "contractName": "USDT",
  "abi": [
    {
      "inputs": [],
      "stateMutability": "nonpayable",
      "type": "constructor"
    },
    {
      "inputs": [
        {
          "internalType": "address",
          "name": "spender",
          "type": "address"
        },
        {
          "internalType": "uint256",
          "name": "allowance",
          "type": "uint256"
        },
        {
          "internalType": "uint256",
          "name": "needed",
          "type": "uint256"
        }
      ],
      "name": "ERC20InsufficientAllowance",
      "type": "error"
    },
    {
      "inputs": [
        {
          "internalType": "address",
          "name": "sender",
          "type": "address"
        },
        {
          "internalType": "uint256",
          "name": "balance",
          "type": "uint256"
        },
        {
          "internalType": "uint256",
          "name": "needed",
          "type": "uint256"
        }
      ],
      "name": "ERC20InsufficientBalance",
      "type": "error"
    },
    {
      "inputs": [
        {
          "internalType": "address",
          "name": "approver",
          "type": "address"
        }
      ],
      "name": "ERC20InvalidApprover",
      "type": "error"
    },
    {
      "inputs": [
        {
          "internalType": "address",
          "name": "receiver",
          "type": "address"
        }
      ],
      "name": "ERC20InvalidReceiver",
      "type": "error"
    },
    {
      "inputs": [
        {
          "internalType": "address",
          "name": "sender",
          "type": "address"
        }
      ],
      "name": "ERC20InvalidSender",
      "type": "error"
    },
    {
      "inputs": [
        {
          "internalType": "address",
          "name": "spender",
          "type": "address"
        }
      ],
      "name": "ERC20InvalidSpender",
      "type": "error"
    },
    {
      "anonymous": false,
      "inputs": [
        {
          "indexed": true,
          "internalType": "address",
          "name": "owner",
          "type": "address"
        },
        {
          "indexed": true,
          "internalType": "address",
          "name": "spender",
          "type": "address"
        },
        {
          "indexed": false,
          "internalType": "uint256",
          "name": "value",
          "type": "uint256"
        }
      ],
      "name": "Approval",
      "type": "event"
    },
    {
      "anonymous": false,
      "inputs": [
        {
          "indexed": true,
          "internalType": "address",
          "name": "from",
          "type": "address"
        },
        {
          "indexed": true,
          "internalType": "address",
          "name": "to",
          "type": "address"
        },
        {
          "indexed": false,
          "internalType": "uint256",
          "name": "value",
          "type": "uint256"
        }
      ],
      "name": "Transfer",
      "type": "event"
    },
    {
      "inputs": [
        {
          "internalType": "address",
          "name": "owner",
          "type": "address"
        },
        {
          "internalType": "address",
          "name": "spender",
          "type": "address"
        }
      ],
      "name": "allowance",
      "outputs": [
        {
          "internalType": "uint256",
          "name": "",
          "type": "uint256"
        }
      ],
      "stateMutability": "view",
      "type": "function",
      "constant": true
    },
    {
      "inputs": [
        {
          "internalType": "address",
          "name": "spender",
          "type": "address"
        },
        {
          "internalType": "uint256",
          "name": "value",
          "type": "uint256"
        }
      ],
      "name": "approve",
      "outputs": [
        {
          "internalType": "bool",
          "name": "",
          "type": "bool"
        }
      ],
      "stateMutability": "nonpayable",
      "type": "function"
    },
    {
      "inputs": [
        {
          "internalType": "address",
          "name": "account",
          "type": "address"
        }
      ],
      "name": "balanceOf",
      "outputs": [
        {
          "internalType": "uint256",
          "name": "",
          "type": "uint256"
        }
      ],
      "stateMutability": "view",
      "type": "function",
      "constant": true
    },
    {
      "inputs": [],
      "name": "decimals",
      "outputs": [
        {
          "internalType": "uint8",
          "name": "",
          "type": "uint8"
        }
      ],
      "stateMutability": "view",
      "type": "function",
      "constant": true
    },
    {
      "inputs": [],
      "name": "name",
      "outputs": [
        {
          "internalType": "string",
          "name": "",
          "type": "string"
        }
      ],
      "stateMutability": "view",
      "type": "function",
      "constant": true
    },
    {
      "inputs": [],
      "name": "owner",
      "outputs": [
        {
          "internalType": "address",
          "name": "",
          "type": "address"
        }
      ],
      "stateMutability": "view",
      "type": "function",
      "constant": true
    },
    {
      "inputs": [],
      "name": "symbol",
      "outputs": [
        {
          "internalType": "string",
          "name": "",
          "type": "string"
        }
      ],
      "stateMutability": "view",
      "type": "function",
      "constant": true
    },
    {
      "inputs": [],
      "name": "totalSupply",
      "outputs": [
        {
          "internalType": "uint256",
          "name": "",
          "type": "uint256"
        }
      ],
      "stateMutability": "view",
      "type": "function",
      "constant": true
    },
    {
      "inputs": [
        {
          "internalType": "address",
          "name": "to",
          "type": "address"
        },
        {
          "internalType": "uint256",
          "name": "value",
          "type": "uint256"
        }
      ],
      "name": "transfer",
      "outputs": [
        {
          "internalType": "bool",
          "name": "",
          "type": "bool"
        }
      ],
      "stateMutability": "nonpayable",
      "type": "function"
    },
    {
      "inputs": [
        {
          "internalType": "address",
          "name": "from",
          "type": "address"
        },
        {
          "internalType": "address",
          "name": "to",
          "type": "address"
        },
        {
          "internalType": "uint256",
          "name": "value",
          "type": "uint256"
        }
      ],
      "name": "transferFrom",
      "outputs": [
        {
          "internalType": "bool",
          "name": "",
          "type": "bool"
        }
      ],
      "stateMutability": "nonpayable",
      "type": "function"
    },
    {
      "inputs": [
        {
          "internalType": "address",
          "name": "to",
          "type": "address"
        },
        {
          "internalType": "uint256",
          "name": "amount",
          "type": "uint256"
        }
      ],
      "name": "mint",
      "outputs": [],
      "stateMutability": "nonpayable",
      "type": "function"
    },
    {
      "inputs": [
        {
          "internalType": "address",
          "name": "from",
          "type": "address"
        },
        {
          "internalType": "uint256",
          "name": "amount",
          "type": "uint256"
        }
      ],
      "name": "burn",
      "outputs": [],
      "stateMutability": "nonpayable",
      "type": "function"
    }
  ],
  "bytecode": "0x608034620003d6576040906001600160401b039080830182811182821017620003c0578352600a81526020906915195d1a195c881554d160b21b8282015283519284840184811082821117620003c0578552600493848152631554d11560e21b848201528251828111620003ab576003918254916001958684811c94168015620003a0575b888510146200038b578190601f9485811162000335575b508890858311600114620002ce57600092620002c2575b505060001982861b1c191690861b1783555b8051938411620002ad5786548581811c91168015620002a2575b878210146200028d5782811162000242575b5085918411600114620001d757938394918492600095620001cb575b50501b92600019911b1c19161782555b600580546001600160a01b0319163390811790915515620001b45760025469d3c21bcecceda1000000928382018092116200019f57506000917fddf252ad1be2c89b69c2b068fc378daa952ba7f163c4a11628f55a4df523b3ef9160025533835282815284832084815401905584519384523393a3516108f49081620003dc8239f35b601190634e487b7160e01b6000525260246000fd5b506000602492519163ec442f0560e01b8352820152fd5b0151935038806200010c565b9190601f198416928760005284876000209460005b89898383106200022a57505050106200020f575b50505050811b0182556200011c565b01519060f884600019921b161c191690553880808062000200565b868601518955909701969485019488935001620001ec565b87600052866000208380870160051c82019289881062000283575b0160051c019086905b82811062000276575050620000f0565b6000815501869062000266565b925081926200025d565b602288634e487b7160e01b6000525260246000fd5b90607f1690620000de565b604187634e487b7160e01b6000525260246000fd5b015190503880620000b2565b90889350601f19831691876000528a6000209260005b8c8282106200031e575050841162000305575b505050811b018355620000c4565b015160001983881b60f8161c19169055388080620002f7565b8385015186558c97909501949384019301620002e4565b90915085600052886000208580850160051c8201928b861062000381575b918a91869594930160051c01915b828110620003715750506200009b565b600081558594508a910162000361565b9250819262000353565b602289634e487b7160e01b6000525260246000fd5b93607f169362000084565b604186634e487b7160e01b6000525260246000fd5b634e487b7160e01b600052604160045260246000fd5b600080fdfe608060408181526004918236101561001657600080fd5b600092833560e01c91826306fdde031461068c57508163095ea7b3146105e257816318160ddd146105c357816323b872dd146104cc578163313ce567146104b057816340c10f19146103bf57816370a08231146103885781638da5cb5b1461035f57816395d89b411461023e5781639dc29fac1461012457508063a9059cbb146100f45763dd62ed3e146100a957600080fd5b346100f057806003193601126100f057806020926100c56107af565b6100cd6107ca565b6001600160a01b0391821683526001865283832091168252845220549051908152f35b5080fd5b50346100f057806003193601126100f05760209061011d6101136107af565b60243590336107e0565b5160018152f35b839150346100f057826003193601126100f05761013f6107af565b6005549091602435916001600160a01b0390811633036102055783169283156101ee578385528460205285852054918383106101ba5750508184957fddf252ad1be2c89b69c2b068fc378daa952ba7f163c4a11628f55a4df523b3ef936020938688528785520381872055816002540360025551908152a380f35b865163391434e360e21b81526001600160a01b03909216908201908152602081018390526040810184905281906060010390fd5b8551634b637e8f60e11b8152808301869052602490fd5b855162461bcd60e51b8152602081840152601360248201527227b7363c9037bbb732b91031b0b710313ab93760691b6044820152606490fd5b8383346100f057816003193601126100f05780519082845460018160011c9060018316928315610355575b60209384841081146103425783885290811561032657506001146102d1575b505050829003601f01601f191682019267ffffffffffffffff8411838510176102be57508291826102ba925282610766565b0390f35b634e487b7160e01b815260418552602490fd5b8787529192508591837f8a35acfbc15ff81a39ae7d344fd709f28e8600b4aa8c65c6b64bfe7fe36bd19b5b8385106103125750505050830101858080610288565b8054888601830152930192849082016102fc565b60ff1916878501525050151560051b8401019050858080610288565b634e487b7160e01b895260228a52602489fd5b91607f1691610269565b5050346100f057816003193601126100f05760055490516001600160a01b039091168152602090f35b5050346100f05760203660031901126100f05760209181906001600160a01b036103b06107af565b16815280845220549051908152f35b919050346104ac57806003193601126104ac576103da6107af565b60055460243592916001600160a01b039182163303610473571692831561045e576002549083820180921161044b575084927fddf252ad1be2c89b69c2b068fc378daa952ba7f163c4a11628f55a4df523b3ef9260209260025585855284835280852082815401905551908152a380f35b634e487b7160e01b865260119052602485fd5b84602492519163ec442f0560e01b8352820152fd5b825162461bcd60e51b8152602081870152601360248201527213db9b1e481bdddb995c8818d85b881b5a5b9d606a1b6044820152606490fd5b8280fd5b5050346100f057816003193601126100f0576020905160128152f35b905082346105c05760603660031901126105c0576104e86107af565b6104f06107ca565b916044359360018060a01b03831680835260016020528683203384526020528683205491600019831061052c575b60208861011d8989896107e0565b86831061059457811561057d5733156105665750825260016020908152868320338452815291869020908590039055829061011d8761051e565b8751634a1406b160e11b8152908101849052602490fd5b875163e602df0560e01b8152908101849052602490fd5b8751637dc7a0d960e11b8152339181019182526020820193909352604081018790528291506060010390fd5b80fd5b5050346100f057816003193601126100f0576020906002549051908152f35b9050346104ac57816003193601126104ac576105fc6107af565b602435903315610675576001600160a01b031691821561065e57508083602095338152600187528181208582528752205582519081527f8c5be1e5ebec7d5bd14f71427d1e84f3dd0314c0f7b2291e5b200ac8c7c3b925843392a35160018152f35b8351634a1406b160e11b8152908101859052602490fd5b835163e602df0560e01b8152808401869052602490fd5b849084346104ac57826003193601126104ac578260035460018160011c906001831692831561075c575b602093848410811461034257838852908115610326575060011461070657505050829003601f01601f191682019267ffffffffffffffff8411838510176102be57508291826102ba925282610766565b600387529192508591837fc2575a0e9e593c00f959f8c92f12db2869c3395a3b0502d05e2516446f71f85b5b8385106107485750505050830101858080610288565b805488860183015293019284908201610732565b91607f16916106b6565b6020808252825181830181905290939260005b82811061079b57505060409293506000838284010152601f8019910116010190565b818101860151848201604001528501610779565b600435906001600160a01b03821682036107c557565b600080fd5b602435906001600160a01b03821682036107c557565b916001600160a01b038084169283156108a5571692831561088c576000908382528160205260408220549083821061085a575091604082827fddf252ad1be2c89b69c2b068fc378daa952ba7f163c4a11628f55a4df523b3ef958760209652828652038282205586815220818154019055604051908152a3565b60405163391434e360e21b81526001600160a01b03919091166004820152602481019190915260448101839052606490fd5b60405163ec442f0560e01b815260006004820152602490fd5b604051634b637e8f60e11b815260006004820152602490fdfea264697066735822122038251dc0d8aff5ebcc1e5b678f60c4477d0f7b18586c336f0b0d2ffc5a4008ee64736f6c63430008180033",
  "immutableReferences": {},
  "source": "// SPDX-License-Identifier: MIT\npragma solidity ^0.8.0;\n\nimport \"@openzeppelin/contracts/token/ERC20/ERC20.sol\";\n\ncontract USDT is ERC20 {\n    address public owner;\n\n    constructor() ERC20(\"Tether USD\", \"USDT\") {\n        owner = msg.sender;\n        _mint(owner, 1_000_000 * 10 ** decimals()); // Mint 1 million USDT to deployer\n    }\n\n    // Only owner can mint new tokens (if needed)\n    function mint(address to, uint256 amount) external {\n        require(msg.sender == owner, \"Only owner can mint\");\n        _mint(to, amount);\n    }\n\n    // Optional: burn function to destroy tokens\n    function burn(address from, uint256 amount) external {\n        require(msg.sender == owner, \"Only owner can burn\");\n        _burn(from, amount);\n    }\n}\n",
  "sourcePath": "G:\\coding\\blockchain\\truffle-demo\\contracts\\USDT.sol",
  "compiler": {
    "name": "solc",
    "version": "0.8.24+commit.e11b9ed9.Emscripten.clang"
  },
  "schemaVersion": "3.4.16",
  "updatedAt": "2025-05-10T16:19:20.922Z",
  "networkType": "ethereum",
  "devdoc": {
    "errors": {
      "ERC20InsufficientAllowance(address,uint256,uint256)": [
        {
          "details": "Indicates a failure with the `spender`s `allowance`. Used in transfers.",
          "params": {
            "allowance": "Amount of tokens a `spender` is allowed to operate with.",
            "needed": "Minimum amount required to perform a transfer.",
            "spender": "Address that may be allowed to operate on tokens without being their owner."
          }
        }
      ],
      "ERC20InsufficientBalance(address,uint256,uint256)": [
        {
          "details": "Indicates an error related to the current `balance` of a `sender`. Used in transfers.",
          "params": {
            "balance": "Current balance for the interacting account.",
            "needed": "Minimum amount required to perform a transfer.",
            "sender": "Address whose tokens are being transferred."
          }
        }
      ],
      "ERC20InvalidApprover(address)": [
        {
          "details": "Indicates a failure with the `approver` of a token to be approved. Used in approvals.",
          "params": {
            "approver": "Address initiating an approval operation."
          }
        }
      ],
      "ERC20InvalidReceiver(address)": [
        {
          "details": "Indicates a failure with the token `receiver`. Used in transfers.",
          "params": {
            "receiver": "Address to which tokens are being transferred."
          }
        }
      ],
      "ERC20InvalidSender(address)": [
        {
          "details": "Indicates a failure with the token `sender`. Used in transfers.",
          "params": {
            "sender": "Address whose tokens are being transferred."
          }
        }
      ],
      "ERC20InvalidSpender(address)": [
        {
          "details": "Indicates a failure with the `spender` to be approved. Used in approvals.",
          "params": {
            "spender": "Address that may be allowed to operate on tokens without being their owner."
          }
        }
      ]
    },
    "events": {
      "Approval(address,address,uint256)": {
        "details": "Emitted when the allowance of a `spender` for an `owner` is set by a call to {approve}. `value` is the new allowance."
      },
      "Transfer(address,address,uint256)": {
        "details": "Emitted when `value` tokens are moved from one account (`from`) to another (`to`). Note that `value` may be zero."
      }
    },
    "kind": "dev",
    "methods": {
      "allowance(address,address)": {
        "details": "See {IERC20-allowance}."
      },
      "approve(address,uint256)": {
        "details": "See {IERC20-approve}. NOTE: If `value` is the maximum `uint256`, the allowance is not updated on `transferFrom`. This is semantically equivalent to an infinite approval. Requirements: - `spender` cannot be the zero address."
      },
      "balanceOf(address)": {
        "details": "See {IERC20-balanceOf}."
      },
      "decimals()": {
        "details": "Returns the number of decimals used to get its user representation. For example, if `decimals` equals `2`, a balance of `505` tokens should be displayed to a user as `5.05` (`505 / 10 ** 2`). Tokens usually opt for a value of 18, imitating the relationship between Ether and Wei. This is the default value returned by this function, unless it's overridden. NOTE: This information is only used for _display_ purposes: it in no way affects any of the arithmetic of the contract, including {IERC20-balanceOf} and {IERC20-transfer}."
      },
      "name()": {
        "details": "Returns the name of the token."
      },
      "symbol()": {
        "details": "Returns the symbol of the token, usually a shorter version of the name."
      },
      "totalSupply()": {
        "details": "See {IERC20-totalSupply}."
      },
      "transfer(address,uint256)": {
        "details": "See {IERC20-transfer}. Requirements: - `to` cannot be the zero address. - the caller must have a balance of at least `value`."
      },
      "transferFrom(address,address,uint256)": {
        "details": "See {IERC20-transferFrom}. Skips emitting an {Approval} event indicating an allowance update. This is not required by the ERC. See {xref-ERC20-_approve-address-address-uint256-bool-}[_approve]. NOTE: Does not update the allowance if the current allowance is the maximum `uint256`. Requirements: - `from` and `to` cannot be the zero address. - `from` must have a balance of at least `value`. - the caller must have allowance for ``from``'s tokens of at least `value`."
      }
    },
    "version": 1
  },
  "userdoc": {
    "kind": "user",
    "methods": {},
    "version": 1
  }
}